{
  "contractName": "FeeToken",
  "abi": [
    {
      "inputs": [],
      "stateMutability": "nonpayable",
      "type": "constructor"
    },
    {
      "anonymous": false,
      "inputs": [
        {
          "indexed": true,
          "internalType": "address",
          "name": "owner",
          "type": "address"
        },
        {
          "indexed": true,
          "internalType": "address",
          "name": "spender",
          "type": "address"
        },
        {
          "indexed": false,
          "internalType": "uint256",
          "name": "value",
          "type": "uint256"
        }
      ],
      "name": "Approval",
      "type": "event"
    },
    {
      "anonymous": false,
      "inputs": [
        {
          "indexed": true,
          "internalType": "address",
          "name": "previousOwner",
          "type": "address"
        },
        {
          "indexed": true,
          "internalType": "address",
          "name": "newOwner",
          "type": "address"
        }
      ],
      "name": "OwnershipTransferred",
      "type": "event"
    },
    {
      "anonymous": false,
      "inputs": [
        {
          "indexed": true,
          "internalType": "address",
          "name": "from",
          "type": "address"
        },
        {
          "indexed": true,
          "internalType": "address",
          "name": "to",
          "type": "address"
        },
        {
          "indexed": false,
          "internalType": "uint256",
          "name": "value",
          "type": "uint256"
        }
      ],
      "name": "Transfer",
      "type": "event"
    },
    {
      "inputs": [],
      "name": "burnFee",
      "outputs": [
        {
          "internalType": "uint256",
          "name": "",
          "type": "uint256"
        }
      ],
      "stateMutability": "view",
      "type": "function"
    },
    {
      "inputs": [],
      "name": "fundAddress",
      "outputs": [
        {
          "internalType": "address",
          "name": "",
          "type": "address"
        }
      ],
      "stateMutability": "view",
      "type": "function"
    },
    {
      "inputs": [],
      "name": "fundFee",
      "outputs": [
        {
          "internalType": "uint256",
          "name": "",
          "type": "uint256"
        }
      ],
      "stateMutability": "view",
      "type": "function"
    },
    {
      "inputs": [],
      "name": "owner",
      "outputs": [
        {
          "internalType": "address",
          "name": "",
          "type": "address"
        }
      ],
      "stateMutability": "view",
      "type": "function"
    },
    {
      "inputs": [],
      "name": "renounceOwnership",
      "outputs": [],
      "stateMutability": "nonpayable",
      "type": "function"
    },
    {
      "inputs": [
        {
          "internalType": "address",
          "name": "newOwner",
          "type": "address"
        }
      ],
      "name": "transferOwnership",
      "outputs": [],
      "stateMutability": "nonpayable",
      "type": "function"
    },
    {
      "inputs": [],
      "name": "name",
      "outputs": [
        {
          "internalType": "string",
          "name": "",
          "type": "string"
        }
      ],
      "stateMutability": "view",
      "type": "function"
    },
    {
      "inputs": [],
      "name": "symbol",
      "outputs": [
        {
          "internalType": "string",
          "name": "",
          "type": "string"
        }
      ],
      "stateMutability": "view",
      "type": "function"
    },
    {
      "inputs": [],
      "name": "decimals",
      "outputs": [
        {
          "internalType": "uint8",
          "name": "",
          "type": "uint8"
        }
      ],
      "stateMutability": "pure",
      "type": "function"
    },
    {
      "inputs": [],
      "name": "totalSupply",
      "outputs": [
        {
          "internalType": "uint256",
          "name": "",
          "type": "uint256"
        }
      ],
      "stateMutability": "view",
      "type": "function"
    },
    {
      "inputs": [
        {
          "internalType": "address",
          "name": "account",
          "type": "address"
        }
      ],
      "name": "balanceOf",
      "outputs": [
        {
          "internalType": "uint256",
          "name": "",
          "type": "uint256"
        }
      ],
      "stateMutability": "view",
      "type": "function"
    },
    {
      "inputs": [
        {
          "internalType": "address",
          "name": "recipient",
          "type": "address"
        },
        {
          "internalType": "uint256",
          "name": "amount",
          "type": "uint256"
        }
      ],
      "name": "transfer",
      "outputs": [
        {
          "internalType": "bool",
          "name": "",
          "type": "bool"
        }
      ],
      "stateMutability": "nonpayable",
      "type": "function"
    },
    {
      "inputs": [
        {
          "internalType": "address",
          "name": "owner",
          "type": "address"
        },
        {
          "internalType": "address",
          "name": "spender",
          "type": "address"
        }
      ],
      "name": "allowance",
      "outputs": [
        {
          "internalType": "uint256",
          "name": "",
          "type": "uint256"
        }
      ],
      "stateMutability": "view",
      "type": "function"
    },
    {
      "inputs": [
        {
          "internalType": "address",
          "name": "spender",
          "type": "address"
        },
        {
          "internalType": "uint256",
          "name": "amount",
          "type": "uint256"
        }
      ],
      "name": "approve",
      "outputs": [
        {
          "internalType": "bool",
          "name": "",
          "type": "bool"
        }
      ],
      "stateMutability": "nonpayable",
      "type": "function"
    },
    {
      "inputs": [
        {
          "internalType": "address",
          "name": "sender",
          "type": "address"
        },
        {
          "internalType": "address",
          "name": "recipient",
          "type": "address"
        },
        {
          "internalType": "uint256",
          "name": "amount",
          "type": "uint256"
        }
      ],
      "name": "transferFrom",
      "outputs": [
        {
          "internalType": "bool",
          "name": "",
          "type": "bool"
        }
      ],
      "stateMutability": "nonpayable",
      "type": "function"
    },
    {
      "inputs": [
        {
          "internalType": "address",
          "name": "spender",
          "type": "address"
        },
        {
          "internalType": "uint256",
          "name": "addedValue",
          "type": "uint256"
        }
      ],
      "name": "increaseAllowance",
      "outputs": [
        {
          "internalType": "bool",
          "name": "",
          "type": "bool"
        }
      ],
      "stateMutability": "nonpayable",
      "type": "function"
    },
    {
      "inputs": [
        {
          "internalType": "address",
          "name": "spender",
          "type": "address"
        },
        {
          "internalType": "uint256",
          "name": "subtractedValue",
          "type": "uint256"
        }
      ],
      "name": "decreaseAllowance",
      "outputs": [
        {
          "internalType": "bool",
          "name": "",
          "type": "bool"
        }
      ],
      "stateMutability": "nonpayable",
      "type": "function"
    },
    {
      "inputs": [
        {
          "internalType": "address",
          "name": "account",
          "type": "address"
        },
        {
          "internalType": "uint256",
          "name": "amount",
          "type": "uint256"
        }
      ],
      "name": "mint",
      "outputs": [],
      "stateMutability": "nonpayable",
      "type": "function"
    },
    {
      "inputs": [
        {
          "internalType": "address",
          "name": "account",
          "type": "address"
        },
        {
          "internalType": "uint256",
          "name": "amount",
          "type": "uint256"
        }
      ],
      "name": "burn",
      "outputs": [],
      "stateMutability": "nonpayable",
      "type": "function"
    },
    {
      "inputs": [
        {
          "internalType": "uint256",
          "name": "_burnFee",
          "type": "uint256"
        },
        {
          "internalType": "uint256",
          "name": "_fundFee",
          "type": "uint256"
        }
      ],
      "name": "updateFees",
      "outputs": [],
      "stateMutability": "nonpayable",
      "type": "function"
    },
    {
      "inputs": [
        {
          "internalType": "address",
          "name": "_fundAddress",
          "type": "address"
        }
      ],
      "name": "updateFundAddress",
      "outputs": [],
      "stateMutability": "nonpayable",
      "type": "function"
    },
    {
      "inputs": [
        {
          "internalType": "address",
          "name": "_addr",
          "type": "address"
        }
      ],
      "name": "addToBlackList",
      "outputs": [],
      "stateMutability": "nonpayable",
      "type": "function"
    }
  ],
  "bytecode": "0x608060405269d3c21bcecceda10000006004556040518060400160405280600881526020017f466565546f6b656e000000000000000000000000000000000000000000000000815250600590805190602001906200005f9291906200030a565b506040518060400160405280600481526020017f464545540000000000000000000000000000000000000000000000000000000081525060069080519060200190620000ad9291906200030a565b5060056008556005600955348015620000c557600080fd5b50620000e6620000da6200023e60201b60201c565b6200024660201b60201c565b33600a60006101000a81548173ffffffffffffffffffffffffffffffffffffffff021916908373ffffffffffffffffffffffffffffffffffffffff1602179055506001600760003373ffffffffffffffffffffffffffffffffffffffff1673ffffffffffffffffffffffffffffffffffffffff16815260200190815260200160002060006101000a81548160ff021916908315150217905550600454600160003373ffffffffffffffffffffffffffffffffffffffff1673ffffffffffffffffffffffffffffffffffffffff168152602001908152602001600020819055506004546003819055503373ffffffffffffffffffffffffffffffffffffffff16600073ffffffffffffffffffffffffffffffffffffffff167fddf252ad1be2c89b69c2b068fc378daa952ba7f163c4a11628f55a4df523b3ef600454604051620002309190620003cb565b60405180910390a362000457565b600033905090565b60008060009054906101000a900473ffffffffffffffffffffffffffffffffffffffff169050816000806101000a81548173ffffffffffffffffffffffffffffffffffffffff021916908373ffffffffffffffffffffffffffffffffffffffff1602179055508173ffffffffffffffffffffffffffffffffffffffff168173ffffffffffffffffffffffffffffffffffffffff167f8be0079c531659141344cd1fd0a4f28419497f9722a3daafe3b4186f6b6457e060405160405180910390a35050565b8280546200031890620003f2565b90600052602060002090601f0160209004810192826200033c576000855562000388565b82601f106200035757805160ff191683800117855562000388565b8280016001018555821562000388579182015b82811115620003875782518255916020019190600101906200036a565b5b5090506200039791906200039b565b5090565b5b80821115620003b65760008160009055506001016200039c565b5090565b620003c581620003e8565b82525050565b6000602082019050620003e26000830184620003ba565b92915050565b6000819050919050565b600060028204905060018216806200040b57607f821691505b6020821081141562000422576200042162000428565b5b50919050565b7f4e487b7100000000000000000000000000000000000000000000000000000000600052602260045260246000fd5b61252080620004676000396000f3fe608060405234801561001057600080fd5b50600436106101425760003560e01c806370a08231116100b8578063a457c2d71161007c578063a457c2d714610351578063a9059cbb14610381578063dd62ed3e146103b1578063e82bef29146103e1578063f2fde38b146103ff578063fce589d81461041b57610142565b806370a08231146102bf578063715018a6146102ef5780638da5cb5b146102f957806395d89b41146103175780639dc29fac1461033557610142565b8063313ce5671161010a578063313ce567146101ff57806333abd0281461021d578063395093511461023b57806340c10f191461026b578063417c73a7146102875780636db79437146102a357610142565b806306fdde0314610147578063095ea7b31461016557806318160ddd146101955780631d5459f7146101b357806323b872dd146101cf575b600080fd5b61014f610439565b60405161015c919061203b565b60405180910390f35b61017f600480360381019061017a9190611a5c565b6104cb565b60405161018c9190612020565b60405180910390f35b61019d6104e2565b6040516101aa91906121fd565b60405180910390f35b6101cd60048036038101906101c891906119a8565b6104ec565b005b6101e960048036038101906101e49190611a0d565b61067e565b6040516101f69190612020565b60405180910390f35b610207610771565b6040516102149190612218565b60405180910390f35b61022561077a565b60405161023291906121fd565b60405180910390f35b61025560048036038101906102509190611a5c565b610780565b6040516102629190612020565b60405180910390f35b61028560048036038101906102809190611a5c565b61081e565b005b6102a1600480360381019061029c91906119a8565b610a4a565b005b6102bd60048036038101906102b89190611a98565b610b21565b005b6102d960048036038101906102d491906119a8565b610baf565b6040516102e691906121fd565b60405180910390f35b6102f7610bf8565b005b610301610c80565b60405161030e9190612005565b60405180910390f35b61031f610ca9565b60405161032c919061203b565b60405180910390f35b61034f600480360381019061034a9190611a5c565b610d3b565b005b61036b60048036038101906103669190611a5c565b610dc5565b6040516103789190612020565b60405180910390f35b61039b60048036038101906103969190611a5c565b610eab565b6040516103a89190612020565b60405180910390f35b6103cb60048036038101906103c691906119d1565b610ec2565b6040516103d891906121fd565b60405180910390f35b6103e9610f49565b6040516103f69190612005565b60405180910390f35b610419600480360381019061041491906119a8565b610f6f565b005b610423611067565b60405161043091906121fd565b60405180910390f35b606060058054610448906123ec565b80601f0160208091040260200160405190810160405280929190818152602001828054610474906123ec565b80156104c15780601f10610496576101008083540402835291602001916104c1565b820191906000526020600020905b8154815290600101906020018083116104a457829003601f168201915b5050505050905090565b60006104d833848461106d565b6001905092915050565b6000600354905090565b6104f4611238565b73ffffffffffffffffffffffffffffffffffffffff16610512610c80565b73ffffffffffffffffffffffffffffffffffffffff1614610568576040517f08c379a000000000000000000000000000000000000000000000000000000000815260040161055f9061211d565b60405180910390fd5b600060076000600a60009054906101000a900473ffffffffffffffffffffffffffffffffffffffff1673ffffffffffffffffffffffffffffffffffffffff1673ffffffffffffffffffffffffffffffffffffffff16815260200190815260200160002060006101000a81548160ff0219169083151502179055506001600760008373ffffffffffffffffffffffffffffffffffffffff1673ffffffffffffffffffffffffffffffffffffffff16815260200190815260200160002060006101000a81548160ff02191690831515021790555080600a60006101000a81548173ffffffffffffffffffffffffffffffffffffffff021916908373ffffffffffffffffffffffffffffffffffffffff16021790555050565b600061068b848484611240565b6000600260008673ffffffffffffffffffffffffffffffffffffffff1673ffffffffffffffffffffffffffffffffffffffff16815260200190815260200160002060003373ffffffffffffffffffffffffffffffffffffffff1673ffffffffffffffffffffffffffffffffffffffff1681526020019081526020016000205490508281101561074f576040517f08c379a0000000000000000000000000000000000000000000000000000000008152600401610746906120fd565b60405180910390fd5b610765853385846107609190612330565b61106d565b60019150509392505050565b60006012905090565b60095481565b6000610814338484600260003373ffffffffffffffffffffffffffffffffffffffff1673ffffffffffffffffffffffffffffffffffffffff16815260200190815260200160002060008873ffffffffffffffffffffffffffffffffffffffff1673ffffffffffffffffffffffffffffffffffffffff1681526020019081526020016000205461080f919061224f565b61106d565b6001905092915050565b610826611238565b73ffffffffffffffffffffffffffffffffffffffff16610844610c80565b73ffffffffffffffffffffffffffffffffffffffff161461089a576040517f08c379a00000000000000000000000000000000000000000000000000000000081526004016108919061211d565b60405180910390fd5b600073ffffffffffffffffffffffffffffffffffffffff168273ffffffffffffffffffffffffffffffffffffffff16141561090a576040517f08c379a0000000000000000000000000000000000000000000000000000000008152600401610901906121bd565b60405180910390fd5b60035460045411610950576040517f08c379a0000000000000000000000000000000000000000000000000000000008152600401610947906121dd565b60405180910390fd5b60006003546004546109629190612330565b905081811115610970578190505b8060036000828254610982919061224f565b9250508190555080600160008573ffffffffffffffffffffffffffffffffffffffff1673ffffffffffffffffffffffffffffffffffffffff16815260200190815260200160002060008282546109d8919061224f565b925050819055508273ffffffffffffffffffffffffffffffffffffffff16600073ffffffffffffffffffffffffffffffffffffffff167fddf252ad1be2c89b69c2b068fc378daa952ba7f163c4a11628f55a4df523b3ef83604051610a3d91906121fd565b60405180910390a3505050565b610a52611238565b73ffffffffffffffffffffffffffffffffffffffff16610a70610c80565b73ffffffffffffffffffffffffffffffffffffffff1614610ac6576040517f08c379a0000000000000000000000000000000000000000000000000000000008152600401610abd9061211d565b60405180910390fd5b6001600760008373ffffffffffffffffffffffffffffffffffffffff1673ffffffffffffffffffffffffffffffffffffffff16815260200190815260200160002060006101000a81548160ff02191690831515021790555050565b610b29611238565b73ffffffffffffffffffffffffffffffffffffffff16610b47610c80565b73ffffffffffffffffffffffffffffffffffffffff1614610b9d576040517f08c379a0000000000000000000000000000000000000000000000000000000008152600401610b949061211d565b60405180910390fd5b81600881905550806009819055505050565b6000600160008373ffffffffffffffffffffffffffffffffffffffff1673ffffffffffffffffffffffffffffffffffffffff168152602001908152602001600020549050919050565b610c00611238565b73ffffffffffffffffffffffffffffffffffffffff16610c1e610c80565b73ffffffffffffffffffffffffffffffffffffffff1614610c74576040517f08c379a0000000000000000000000000000000000000000000000000000000008152600401610c6b9061211d565b60405180910390fd5b610c7e60006116c4565b565b60008060009054906101000a900473ffffffffffffffffffffffffffffffffffffffff16905090565b606060068054610cb8906123ec565b80601f0160208091040260200160405190810160405280929190818152602001828054610ce4906123ec565b8015610d315780601f10610d0657610100808354040283529160200191610d31565b820191906000526020600020905b815481529060010190602001808311610d1457829003601f168201915b5050505050905090565b610d43611238565b73ffffffffffffffffffffffffffffffffffffffff16610d61610c80565b73ffffffffffffffffffffffffffffffffffffffff1614610db7576040517f08c379a0000000000000000000000000000000000000000000000000000000008152600401610dae9061211d565b60405180910390fd5b610dc18282611788565b5050565b600080600260003373ffffffffffffffffffffffffffffffffffffffff1673ffffffffffffffffffffffffffffffffffffffff16815260200190815260200160002060008573ffffffffffffffffffffffffffffffffffffffff1673ffffffffffffffffffffffffffffffffffffffff16815260200190815260200160002054905082811015610e8a576040517f08c379a0000000000000000000000000000000000000000000000000000000008152600401610e819061219d565b60405180910390fd5b610ea033858584610e9b9190612330565b61106d565b600191505092915050565b6000610eb8338484611240565b6001905092915050565b6000600260008473ffffffffffffffffffffffffffffffffffffffff1673ffffffffffffffffffffffffffffffffffffffff16815260200190815260200160002060008373ffffffffffffffffffffffffffffffffffffffff1673ffffffffffffffffffffffffffffffffffffffff16815260200190815260200160002054905092915050565b600a60009054906101000a900473ffffffffffffffffffffffffffffffffffffffff1681565b610f77611238565b73ffffffffffffffffffffffffffffffffffffffff16610f95610c80565b73ffffffffffffffffffffffffffffffffffffffff1614610feb576040517f08c379a0000000000000000000000000000000000000000000000000000000008152600401610fe29061211d565b60405180910390fd5b600073ffffffffffffffffffffffffffffffffffffffff168173ffffffffffffffffffffffffffffffffffffffff16141561105b576040517f08c379a00000000000000000000000000000000000000000000000000000000081526004016110529061209d565b60405180910390fd5b611064816116c4565b50565b60085481565b600073ffffffffffffffffffffffffffffffffffffffff168373ffffffffffffffffffffffffffffffffffffffff1614156110dd576040517f08c379a00000000000000000000000000000000000000000000000000000000081526004016110d49061217d565b60405180910390fd5b600073ffffffffffffffffffffffffffffffffffffffff168273ffffffffffffffffffffffffffffffffffffffff16141561114d576040517f08c379a0000000000000000000000000000000000000000000000000000000008152600401611144906120bd565b60405180910390fd5b80600260008573ffffffffffffffffffffffffffffffffffffffff1673ffffffffffffffffffffffffffffffffffffffff16815260200190815260200160002060008473ffffffffffffffffffffffffffffffffffffffff1673ffffffffffffffffffffffffffffffffffffffff168152602001908152602001600020819055508173ffffffffffffffffffffffffffffffffffffffff168373ffffffffffffffffffffffffffffffffffffffff167f8c5be1e5ebec7d5bd14f71427d1e84f3dd0314c0f7b2291e5b200ac8c7c3b9258360405161122b91906121fd565b60405180910390a3505050565b600033905090565b600073ffffffffffffffffffffffffffffffffffffffff168373ffffffffffffffffffffffffffffffffffffffff1614156112b0576040517f08c379a00000000000000000000000000000000000000000000000000000000081526004016112a79061215d565b60405180910390fd5b600073ffffffffffffffffffffffffffffffffffffffff168273ffffffffffffffffffffffffffffffffffffffff161415611320576040517f08c379a00000000000000000000000000000000000000000000000000000000081526004016113179061205d565b60405180910390fd5b6000600160008573ffffffffffffffffffffffffffffffffffffffff1673ffffffffffffffffffffffffffffffffffffffff168152602001908152602001600020549050818110156113a7576040517f08c379a000000000000000000000000000000000000000000000000000000000815260040161139e906120dd565b60405180910390fd5b600080600760008773ffffffffffffffffffffffffffffffffffffffff1673ffffffffffffffffffffffffffffffffffffffff16815260200190815260200160002060009054906101000a900460ff1615801561144e5750600760008673ffffffffffffffffffffffffffffffffffffffff1673ffffffffffffffffffffffffffffffffffffffff16815260200190815260200160002060009054906101000a900460ff16155b15611596576000600854146114925761148560646114776008548761195290919063ffffffff16565b61196890919063ffffffff16565b91506114918683611788565b5b600060095414611595576114c460646114b66009548761195290919063ffffffff16565b61196890919063ffffffff16565b905080600160008873ffffffffffffffffffffffffffffffffffffffff1673ffffffffffffffffffffffffffffffffffffffff16815260200190815260200160002060008282546115159190612330565b925050819055508060016000600a60009054906101000a900473ffffffffffffffffffffffffffffffffffffffff1673ffffffffffffffffffffffffffffffffffffffff1673ffffffffffffffffffffffffffffffffffffffff168152602001908152602001600020600082825461158d919061224f565b925050819055505b5b60008183866115a59190612330565b6115af9190612330565b905080846115bd9190612330565b600160008973ffffffffffffffffffffffffffffffffffffffff1673ffffffffffffffffffffffffffffffffffffffff1681526020019081526020016000208190555080600160008873ffffffffffffffffffffffffffffffffffffffff1673ffffffffffffffffffffffffffffffffffffffff168152602001908152602001600020600082825461164f919061224f565b925050819055508573ffffffffffffffffffffffffffffffffffffffff168773ffffffffffffffffffffffffffffffffffffffff167fddf252ad1be2c89b69c2b068fc378daa952ba7f163c4a11628f55a4df523b3ef876040516116b391906121fd565b60405180910390a350505050505050565b60008060009054906101000a900473ffffffffffffffffffffffffffffffffffffffff169050816000806101000a81548173ffffffffffffffffffffffffffffffffffffffff021916908373ffffffffffffffffffffffffffffffffffffffff1602179055508173ffffffffffffffffffffffffffffffffffffffff168173ffffffffffffffffffffffffffffffffffffffff167f8be0079c531659141344cd1fd0a4f28419497f9722a3daafe3b4186f6b6457e060405160405180910390a35050565b600073ffffffffffffffffffffffffffffffffffffffff168273ffffffffffffffffffffffffffffffffffffffff1614156117f8576040517f08c379a00000000000000000000000000000000000000000000000000000000081526004016117ef9061213d565b60405180910390fd5b6000600160008473ffffffffffffffffffffffffffffffffffffffff1673ffffffffffffffffffffffffffffffffffffffff1681526020019081526020016000205490508181101561187f576040517f08c379a00000000000000000000000000000000000000000000000000000000081526004016118769061207d565b60405180910390fd5b818161188b9190612330565b600160008573ffffffffffffffffffffffffffffffffffffffff1673ffffffffffffffffffffffffffffffffffffffff1681526020019081526020016000208190555081600360008282546118e09190612330565b92505081905550600073ffffffffffffffffffffffffffffffffffffffff168373ffffffffffffffffffffffffffffffffffffffff167fddf252ad1be2c89b69c2b068fc378daa952ba7f163c4a11628f55a4df523b3ef8460405161194591906121fd565b60405180910390a3505050565b6000818361196091906122d6565b905092915050565b6000818361197691906122a5565b905092915050565b60008135905061198d816124bc565b92915050565b6000813590506119a2816124d3565b92915050565b6000602082840312156119ba57600080fd5b60006119c88482850161197e565b91505092915050565b600080604083850312156119e457600080fd5b60006119f28582860161197e565b9250506020611a038582860161197e565b9150509250929050565b600080600060608486031215611a2257600080fd5b6000611a308682870161197e565b9350506020611a418682870161197e565b9250506040611a5286828701611993565b9150509250925092565b60008060408385031215611a6f57600080fd5b6000611a7d8582860161197e565b9250506020611a8e85828601611993565b9150509250929050565b60008060408385031215611aab57600080fd5b6000611ab985828601611993565b9250506020611aca85828601611993565b9150509250929050565b611add81612364565b82525050565b611aec81612376565b82525050565b6000611afd82612233565b611b07818561223e565b9350611b178185602086016123b9565b611b20816124ab565b840191505092915050565b6000611b3860238361223e565b91507f45524332303a207472616e7366657220746f20746865207a65726f206164647260008301527f65737300000000000000000000000000000000000000000000000000000000006020830152604082019050919050565b6000611b9e60228361223e565b91507f45524332303a206275726e20616d6f756e7420657863656564732062616c616e60008301527f63650000000000000000000000000000000000000000000000000000000000006020830152604082019050919050565b6000611c0460268361223e565b91507f4f776e61626c653a206e6577206f776e657220697320746865207a65726f206160008301527f64647265737300000000000000000000000000000000000000000000000000006020830152604082019050919050565b6000611c6a60228361223e565b91507f45524332303a20617070726f766520746f20746865207a65726f20616464726560008301527f73730000000000000000000000000000000000000000000000000000000000006020830152604082019050919050565b6000611cd060268361223e565b91507f45524332303a207472616e7366657220616d6f756e742065786365656473206260008301527f616c616e636500000000000000000000000000000000000000000000000000006020830152604082019050919050565b6000611d3660288361223e565b91507f45524332303a207472616e7366657220616d6f756e742065786365656473206160008301527f6c6c6f77616e63650000000000000000000000000000000000000000000000006020830152604082019050919050565b6000611d9c60208361223e565b91507f4f776e61626c653a2063616c6c6572206973206e6f7420746865206f776e65726000830152602082019050919050565b6000611ddc60218361223e565b91507f45524332303a206275726e2066726f6d20746865207a65726f2061646472657360008301527f73000000000000000000000000000000000000000000000000000000000000006020830152604082019050919050565b6000611e4260258361223e565b91507f45524332303a207472616e736665722066726f6d20746865207a65726f20616460008301527f64726573730000000000000000000000000000000000000000000000000000006020830152604082019050919050565b6000611ea860248361223e565b91507f45524332303a20617070726f76652066726f6d20746865207a65726f2061646460008301527f72657373000000000000000000000000000000000000000000000000000000006020830152604082019050919050565b6000611f0e60258361223e565b91507f45524332303a2064656372656173656420616c6c6f77616e63652062656c6f7760008301527f207a65726f0000000000000000000000000000000000000000000000000000006020830152604082019050919050565b6000611f74601f8361223e565b91507f45524332303a206d696e7420746f20746865207a65726f2061646472657373006000830152602082019050919050565b6000611fb460148361223e565b91507f4d696e74696e672069732046696e69736865642e0000000000000000000000006000830152602082019050919050565b611ff0816123a2565b82525050565b611fff816123ac565b82525050565b600060208201905061201a6000830184611ad4565b92915050565b60006020820190506120356000830184611ae3565b92915050565b600060208201905081810360008301526120558184611af2565b905092915050565b6000602082019050818103600083015261207681611b2b565b9050919050565b6000602082019050818103600083015261209681611b91565b9050919050565b600060208201905081810360008301526120b681611bf7565b9050919050565b600060208201905081810360008301526120d681611c5d565b9050919050565b600060208201905081810360008301526120f681611cc3565b9050919050565b6000602082019050818103600083015261211681611d29565b9050919050565b6000602082019050818103600083015261213681611d8f565b9050919050565b6000602082019050818103600083015261215681611dcf565b9050919050565b6000602082019050818103600083015261217681611e35565b9050919050565b6000602082019050818103600083015261219681611e9b565b9050919050565b600060208201905081810360008301526121b681611f01565b9050919050565b600060208201905081810360008301526121d681611f67565b9050919050565b600060208201905081810360008301526121f681611fa7565b9050919050565b60006020820190506122126000830184611fe7565b92915050565b600060208201905061222d6000830184611ff6565b92915050565b600081519050919050565b600082825260208201905092915050565b600061225a826123a2565b9150612265836123a2565b9250827fffffffffffffffffffffffffffffffffffffffffffffffffffffffffffffffff0382111561229a5761229961241e565b5b828201905092915050565b60006122b0826123a2565b91506122bb836123a2565b9250826122cb576122ca61244d565b5b828204905092915050565b60006122e1826123a2565b91506122ec836123a2565b9250817fffffffffffffffffffffffffffffffffffffffffffffffffffffffffffffffff04831182151516156123255761232461241e565b5b828202905092915050565b600061233b826123a2565b9150612346836123a2565b9250828210156123595761235861241e565b5b828203905092915050565b600061236f82612382565b9050919050565b60008115159050919050565b600073ffffffffffffffffffffffffffffffffffffffff82169050919050565b6000819050919050565b600060ff82169050919050565b60005b838110156123d75780820151818401526020810190506123bc565b838111156123e6576000848401525b50505050565b6000600282049050600182168061240457607f821691505b602082108114156124185761241761247c565b5b50919050565b7f4e487b7100000000000000000000000000000000000000000000000000000000600052601160045260246000fd5b7f4e487b7100000000000000000000000000000000000000000000000000000000600052601260045260246000fd5b7f4e487b7100000000000000000000000000000000000000000000000000000000600052602260045260246000fd5b6000601f19601f8301169050919050565b6124c581612364565b81146124d057600080fd5b50565b6124dc816123a2565b81146124e757600080fd5b5056fea2646970667358221220d67efdcd26d61e9f722d395ec66f10ab427407675497a4eb959c7657b390be8a64736f6c63430008000033",
  "immutableReferences": {},
  "source": "// SPDX-License-Identifier: MIT\r\n\r\npragma solidity ^0.8.0;\r\n\r\nimport \"@openzeppelin/contracts/token/ERC20/IERC20.sol\";\r\nimport \"@openzeppelin/contracts/access/Ownable.sol\";\r\nimport \"@openzeppelin/contracts/utils/math/SafeMath.sol\";\r\n\r\ncontract FeeToken is IERC20, Ownable {\r\n    \r\n    using SafeMath for uint256;\r\n\r\n    mapping (address => uint256) private _balances;\r\n    mapping (address => mapping (address => uint256)) private _allowances;\r\n\r\n    uint256 private _totalSupply;\r\n    uint256 private _maxSupply = 1000000 * (10 ** 18);    // 1M supply\r\n\r\n    string private _name = \"FeeToken\";\r\n    string private _symbol = \"FEET\";\r\n\r\n    mapping (address => bool) private blackList;\r\n    uint256 public burnFee = 5;\r\n    uint256 public fundFee = 5;\r\n    address public fundAddress;\r\n\r\n    /**\r\n     * @dev Sets the values for {name} and {symbol}.\r\n     *\r\n     * The defaut value of {decimals} is 18. To select a different value for\r\n     * {decimals} you should overload it.\r\n     *\r\n     * All three of these values are immutable: they can only be set once during\r\n     * construction.\r\n     */\r\n    constructor () {\r\n      fundAddress = msg.sender;\r\n\r\n      blackList[msg.sender] = true;\r\n\r\n      _balances[msg.sender] = _maxSupply;\r\n      _totalSupply = _maxSupply;\r\n\r\n      emit Transfer(address(0), msg.sender, _maxSupply);\r\n    }\r\n\r\n    /**\r\n     * @dev Returns the name of the token.\r\n     */\r\n    function name() external view returns (string memory) {\r\n        return _name;\r\n    }\r\n\r\n    /**\r\n     * @dev Returns the symbol of the token, usually a shorter version of the\r\n     * name.\r\n     */\r\n    function symbol() external view returns (string memory) {\r\n        return _symbol;\r\n    }\r\n\r\n    /**\r\n     * @dev Returns the number of decimals used to get its user representation.\r\n     * For example, if `decimals` equals `2`, a balance of `505` tokens should\r\n     * be displayed to a user as `5,05` (`505 / 10 ** 2`).\r\n     *\r\n     * Tokens usually opt for a value of 18, imitating the relationship between\r\n     * Ether and Wei. This is the value {ERC20} uses, unless this function is\r\n     * overloaded;\r\n     *\r\n     * NOTE: This information is only used for _display_ purposes: it in\r\n     * no way affects any of the arithmetic of the contract, including\r\n     * {IERC20-balanceOf} and {IERC20-transfer}.\r\n     */\r\n    function decimals() external pure returns (uint8) {\r\n        return 18;\r\n    }\r\n\r\n    /**\r\n     * @dev See {IERC20-totalSupply}.\r\n     */\r\n    function totalSupply() external view override returns (uint256) {\r\n        return _totalSupply;\r\n    }\r\n\r\n    /**\r\n     * @dev See {IERC20-balanceOf}.\r\n     */\r\n    function balanceOf(address account) external view override returns (uint256) {\r\n        return _balances[account];\r\n    }\r\n\r\n    /**\r\n     * @dev See {IERC20-transfer}.\r\n     *\r\n     * Requirements:\r\n     *\r\n     * - `recipient` cannot be the zero address.\r\n     * - the caller must have a balance of at least `amount`.\r\n     */\r\n    function transfer(address recipient, uint256 amount) external override returns (bool) {\r\n        _transfer(msg.sender, recipient, amount);\r\n        return true;\r\n    }\r\n\r\n    /**\r\n     * @dev See {IERC20-allowance}.\r\n     */\r\n    function allowance(address owner, address spender) external view override returns (uint256) {\r\n        return _allowances[owner][spender];\r\n    }\r\n\r\n    /**\r\n     * @dev See {IERC20-approve}.\r\n     *\r\n     * Requirements:\r\n     *\r\n     * - `spender` cannot be the zero address.\r\n     */\r\n    function approve(address spender, uint256 amount) external override returns (bool) {\r\n        _approve(msg.sender, spender, amount);\r\n        return true;\r\n    }\r\n\r\n    /**\r\n     * @dev See {IERC20-transferFrom}.\r\n     *\r\n     * Emits an {Approval} event indicating the updated allowance. This is not\r\n     * required by the EIP. See the note at the beginning of {ERC20}.\r\n     *\r\n     * Requirements:\r\n     *\r\n     * - `sender` and `recipient` cannot be the zero address.\r\n     * - `sender` must have a balance of at least `amount`.\r\n     * - the caller must have allowance for ``sender``'s tokens of at least\r\n     * `amount`.\r\n     */\r\n    function transferFrom(address sender, address recipient, uint256 amount) external override returns (bool) {\r\n        _transfer(sender, recipient, amount);\r\n\r\n        uint256 currentAllowance = _allowances[sender][msg.sender];\r\n        require(currentAllowance >= amount, \"ERC20: transfer amount exceeds allowance\");\r\n        _approve(sender, msg.sender, currentAllowance - amount);\r\n\r\n        return true;\r\n    }\r\n\r\n    /**\r\n     * @dev Atomically increases the allowance granted to `spender` by the caller.\r\n     *\r\n     * This is an alternative to {approve} that can be used as a mitigation for\r\n     * problems described in {IERC20-approve}.\r\n     *\r\n     * Emits an {Approval} event indicating the updated allowance.\r\n     *\r\n     * Requirements:\r\n     *\r\n     * - `spender` cannot be the zero address.\r\n     */\r\n    function increaseAllowance(address spender, uint256 addedValue) external returns (bool) {\r\n        _approve(msg.sender, spender, _allowances[msg.sender][spender] + addedValue);\r\n        return true;\r\n    }\r\n\r\n    /**\r\n     * @dev Atomically decreases the allowance granted to `spender` by the caller.\r\n     *\r\n     * This is an alternative to {approve} that can be used as a mitigation for\r\n     * problems described in {IERC20-approve}.\r\n     *\r\n     * Emits an {Approval} event indicating the updated allowance.\r\n     *\r\n     * Requirements:\r\n     *\r\n     * - `spender` cannot be the zero address.\r\n     * - `spender` must have allowance for the caller of at least\r\n     * `subtractedValue`.\r\n     */\r\n    function decreaseAllowance(address spender, uint256 subtractedValue) external returns (bool) {\r\n        uint256 currentAllowance = _allowances[msg.sender][spender];\r\n        require(currentAllowance >= subtractedValue, \"ERC20: decreased allowance below zero\");\r\n        _approve(msg.sender, spender, currentAllowance - subtractedValue);\r\n\r\n        return true;\r\n    }\r\n\r\n    /**\r\n     * @dev Moves tokens `amount` from `sender` to `recipient`.\r\n     *\r\n     * This is internal function is equivalent to {transfer}, and can be used to\r\n     * e.g. implement automatic token fees, slashing mechanisms, etc.\r\n     *\r\n     * Emits a {Transfer} event.\r\n     *\r\n     * Requirements:\r\n     *\r\n     * - `sender` cannot be the zero address.\r\n     * - `recipient` cannot be the zero address.\r\n     * - `sender` must have a balance of at least `amount`.\r\n     */\r\n    function _transfer(address sender, address recipient, uint256 amount) internal {\r\n        require(sender != address(0), \"ERC20: transfer from the zero address\");\r\n        require(recipient != address(0), \"ERC20: transfer to the zero address\");\r\n\r\n        uint256 senderBalance = _balances[sender];\r\n        require(senderBalance >= amount, \"ERC20: transfer amount exceeds balance\");\r\n\r\n        uint256 burnAmount = 0;\r\n        uint256 fundAmount = 0;\r\n        \r\n        if ( !blackList[sender] && !blackList[recipient]) {\r\n\r\n          if (burnFee != 0) {\r\n            burnAmount = amount.mul(burnFee).div(100);\r\n            _burn(sender, burnAmount);\r\n          }\r\n\r\n          if (fundFee != 0) {\r\n            fundAmount = amount .mul(fundFee).div(100);\r\n            _balances[sender] -= fundAmount;\r\n            _balances[fundAddress] += fundAmount;\r\n          }\r\n        }\r\n\r\n        uint256 realAmount = amount - burnAmount - fundAmount;\r\n\r\n        _balances[sender] = senderBalance - realAmount;\r\n        _balances[recipient] += realAmount;\r\n\r\n        emit Transfer(sender, recipient, amount);\r\n    }\r\n\r\n    /** @dev Creates `amount` tokens and assigns them to `account`, increasing\r\n     * the total supply.\r\n     *\r\n     * Emits a {Transfer} event with `from` set to the zero address.\r\n     *\r\n     * Requirements:\r\n     *\r\n     * - `to` cannot be the zero address.\r\n     */\r\n    function mint(address account, uint256 amount) external onlyOwner {\r\n        require(account != address(0), \"ERC20: mint to the zero address\");\r\n        require(_maxSupply > _totalSupply, \"Minting is Finished.\");\r\n\r\n        uint256 _amount = _maxSupply - _totalSupply;\r\n        if (_amount > amount) {\r\n            _amount = amount;\r\n        }\r\n\r\n        _totalSupply += _amount;\r\n        _balances[account] += _amount;\r\n        emit Transfer(address(0), account, _amount);\r\n    }\r\n\r\n    /**\r\n     * @dev Destroys `amount` tokens from `account`, reducing the\r\n     * total supply.\r\n     *\r\n     * Emits a {Transfer} event with `to` set to the zero address.\r\n     *\r\n     * Requirements:\r\n     *\r\n     * - `account` cannot be the zero address.\r\n     * - `account` must have at least `amount` tokens.\r\n     */\r\n    function burn(address account, uint256 amount) external onlyOwner {\r\n        _burn(account, amount);\r\n    }\r\n\r\n    /**\r\n     * @dev Destroys `amount` tokens from `account`, reducing the\r\n     * total supply.\r\n     *\r\n     * Emits a {Transfer} event with `to` set to the zero address.\r\n     *\r\n     * Requirements:\r\n     *\r\n     * - `account` cannot be the zero address.\r\n     * - `account` must have at least `amount` tokens.\r\n     */\r\n    function _burn(address account, uint256 amount) internal {\r\n        require(account != address(0), \"ERC20: burn from the zero address\");\r\n\r\n        uint256 accountBalance = _balances[account];\r\n        require(accountBalance >= amount, \"ERC20: burn amount exceeds balance\");\r\n        _balances[account] = accountBalance - amount;\r\n        _totalSupply -= amount;\r\n\r\n        emit Transfer(account, address(0), amount);\r\n    }\r\n\r\n    /**\r\n     * @dev Sets `amount` as the allowance of `spender` over the `owner` s tokens.\r\n     *\r\n     * This internal function is equivalent to `approve`, and can be used to\r\n     * e.g. set automatic allowances for certain subsystems, etc.\r\n     *\r\n     * Emits an {Approval} event.\r\n     *\r\n     * Requirements:\r\n     *\r\n     * - `owner` cannot be the zero address.\r\n     * - `spender` cannot be the zero address.\r\n     */\r\n    function _approve(address owner, address spender, uint256 amount) internal {\r\n        require(owner != address(0), \"ERC20: approve from the zero address\");\r\n        require(spender != address(0), \"ERC20: approve to the zero address\");\r\n\r\n        _allowances[owner][spender] = amount;\r\n        emit Approval(owner, spender, amount);\r\n    }\r\n\r\n    function updateFees(uint256 _burnFee, uint256 _fundFee) external onlyOwner {\r\n      burnFee = _burnFee;\r\n      fundFee = _fundFee;\r\n    }\r\n\r\n    function updateFundAddress(address _fundAddress) external onlyOwner {\r\n      blackList[fundAddress] = false;\r\n      blackList[_fundAddress] = true;\r\n      fundAddress = _fundAddress;\r\n    }\r\n\r\n    function addToBlackList(address _addr) external onlyOwner {\r\n      blackList[_addr] = true;\r\n    }\r\n}\r\n",
  "sourcePath": "E:\\work\\blockchain\\hydrolabs\\test\\rewards\\contracts\\FeeToken.sol",
  "compiler": {
    "name": "solc",
    "version": "0.8.0+commit.c7dfd78e.Emscripten.clang"
  },
  "schemaVersion": "3.4.2",
  "updatedAt": "2021-08-31T11:43:18.294Z",
  "devdoc": {
    "kind": "dev",
    "methods": {
      "allowance(address,address)": {
        "details": "See {IERC20-allowance}."
      },
      "approve(address,uint256)": {
        "details": "See {IERC20-approve}. Requirements: - `spender` cannot be the zero address."
      },
      "balanceOf(address)": {
        "details": "See {IERC20-balanceOf}."
      },
      "burn(address,uint256)": {
        "details": "Destroys `amount` tokens from `account`, reducing the total supply. Emits a {Transfer} event with `to` set to the zero address. Requirements: - `account` cannot be the zero address. - `account` must have at least `amount` tokens."
      },
      "constructor": {
        "details": "Sets the values for {name} and {symbol}. The defaut value of {decimals} is 18. To select a different value for {decimals} you should overload it. All three of these values are immutable: they can only be set once during construction."
      },
      "decimals()": {
        "details": "Returns the number of decimals used to get its user representation. For example, if `decimals` equals `2`, a balance of `505` tokens should be displayed to a user as `5,05` (`505 / 10 ** 2`). Tokens usually opt for a value of 18, imitating the relationship between Ether and Wei. This is the value {ERC20} uses, unless this function is overloaded; NOTE: This information is only used for _display_ purposes: it in no way affects any of the arithmetic of the contract, including {IERC20-balanceOf} and {IERC20-transfer}."
      },
      "decreaseAllowance(address,uint256)": {
        "details": "Atomically decreases the allowance granted to `spender` by the caller. This is an alternative to {approve} that can be used as a mitigation for problems described in {IERC20-approve}. Emits an {Approval} event indicating the updated allowance. Requirements: - `spender` cannot be the zero address. - `spender` must have allowance for the caller of at least `subtractedValue`."
      },
      "increaseAllowance(address,uint256)": {
        "details": "Atomically increases the allowance granted to `spender` by the caller. This is an alternative to {approve} that can be used as a mitigation for problems described in {IERC20-approve}. Emits an {Approval} event indicating the updated allowance. Requirements: - `spender` cannot be the zero address."
      },
      "mint(address,uint256)": {
        "details": "Creates `amount` tokens and assigns them to `account`, increasing the total supply. Emits a {Transfer} event with `from` set to the zero address. Requirements: - `to` cannot be the zero address."
      },
      "name()": {
        "details": "Returns the name of the token."
      },
      "owner()": {
        "details": "Returns the address of the current owner."
      },
      "renounceOwnership()": {
        "details": "Leaves the contract without owner. It will not be possible to call `onlyOwner` functions anymore. Can only be called by the current owner. NOTE: Renouncing ownership will leave the contract without an owner, thereby removing any functionality that is only available to the owner."
      },
      "symbol()": {
        "details": "Returns the symbol of the token, usually a shorter version of the name."
      },
      "totalSupply()": {
        "details": "See {IERC20-totalSupply}."
      },
      "transfer(address,uint256)": {
        "details": "See {IERC20-transfer}. Requirements: - `recipient` cannot be the zero address. - the caller must have a balance of at least `amount`."
      },
      "transferFrom(address,address,uint256)": {
        "details": "See {IERC20-transferFrom}. Emits an {Approval} event indicating the updated allowance. This is not required by the EIP. See the note at the beginning of {ERC20}. Requirements: - `sender` and `recipient` cannot be the zero address. - `sender` must have a balance of at least `amount`. - the caller must have allowance for ``sender``'s tokens of at least `amount`."
      },
      "transferOwnership(address)": {
        "details": "Transfers ownership of the contract to a new account (`newOwner`). Can only be called by the current owner."
      }
    },
    "version": 1
  },
  "userdoc": {
    "kind": "user",
    "methods": {},
    "version": 1
  }
}