{
  "contractName": "StakingRewards",
  "abi": [
    {
      "inputs": [
        {
          "internalType": "address",
          "name": "_rewardsDistribution",
          "type": "address"
        },
        {
          "internalType": "address",
          "name": "_rewardsToken",
          "type": "address"
        },
        {
          "internalType": "address",
          "name": "_stakingToken",
          "type": "address"
        }
      ],
      "stateMutability": "nonpayable",
      "type": "constructor"
    },
    {
      "anonymous": false,
      "inputs": [
        {
          "indexed": false,
          "internalType": "uint256",
          "name": "",
          "type": "uint256"
        },
        {
          "indexed": false,
          "internalType": "uint256",
          "name": "",
          "type": "uint256"
        }
      ],
      "name": "RewardAdded",
      "type": "event"
    },
    {
      "anonymous": false,
      "inputs": [
        {
          "indexed": false,
          "internalType": "address",
          "name": "",
          "type": "address"
        },
        {
          "indexed": false,
          "internalType": "uint256",
          "name": "",
          "type": "uint256"
        }
      ],
      "name": "RewardPaid",
      "type": "event"
    },
    {
      "anonymous": false,
      "inputs": [
        {
          "indexed": false,
          "internalType": "address",
          "name": "",
          "type": "address"
        },
        {
          "indexed": false,
          "internalType": "uint256",
          "name": "",
          "type": "uint256"
        }
      ],
      "name": "Staked",
      "type": "event"
    },
    {
      "anonymous": false,
      "inputs": [
        {
          "indexed": false,
          "internalType": "address",
          "name": "",
          "type": "address"
        },
        {
          "indexed": false,
          "internalType": "uint256",
          "name": "",
          "type": "uint256"
        }
      ],
      "name": "Withdrawn",
      "type": "event"
    },
    {
      "inputs": [],
      "name": "lastUpdateTime",
      "outputs": [
        {
          "internalType": "uint256",
          "name": "",
          "type": "uint256"
        }
      ],
      "stateMutability": "view",
      "type": "function"
    },
    {
      "inputs": [],
      "name": "periodFinish",
      "outputs": [
        {
          "internalType": "uint256",
          "name": "",
          "type": "uint256"
        }
      ],
      "stateMutability": "view",
      "type": "function"
    },
    {
      "inputs": [],
      "name": "rewardPerTokenStored",
      "outputs": [
        {
          "internalType": "uint256",
          "name": "",
          "type": "uint256"
        }
      ],
      "stateMutability": "view",
      "type": "function"
    },
    {
      "inputs": [],
      "name": "rewardRate",
      "outputs": [
        {
          "internalType": "uint256",
          "name": "",
          "type": "uint256"
        }
      ],
      "stateMutability": "view",
      "type": "function"
    },
    {
      "inputs": [
        {
          "internalType": "address",
          "name": "",
          "type": "address"
        }
      ],
      "name": "rewards",
      "outputs": [
        {
          "internalType": "uint256",
          "name": "",
          "type": "uint256"
        }
      ],
      "stateMutability": "view",
      "type": "function"
    },
    {
      "inputs": [],
      "name": "rewardsDistribution",
      "outputs": [
        {
          "internalType": "address",
          "name": "",
          "type": "address"
        }
      ],
      "stateMutability": "view",
      "type": "function"
    },
    {
      "inputs": [],
      "name": "rewardsToken",
      "outputs": [
        {
          "internalType": "contract IERC20",
          "name": "",
          "type": "address"
        }
      ],
      "stateMutability": "view",
      "type": "function"
    },
    {
      "inputs": [],
      "name": "stakingToken",
      "outputs": [
        {
          "internalType": "contract IERC20",
          "name": "",
          "type": "address"
        }
      ],
      "stateMutability": "view",
      "type": "function"
    },
    {
      "inputs": [
        {
          "internalType": "address",
          "name": "",
          "type": "address"
        }
      ],
      "name": "userRewardPerTokenPaid",
      "outputs": [
        {
          "internalType": "uint256",
          "name": "",
          "type": "uint256"
        }
      ],
      "stateMutability": "view",
      "type": "function"
    },
    {
      "inputs": [],
      "name": "totalSupply",
      "outputs": [
        {
          "internalType": "uint256",
          "name": "",
          "type": "uint256"
        }
      ],
      "stateMutability": "view",
      "type": "function"
    },
    {
      "inputs": [
        {
          "internalType": "address",
          "name": "account",
          "type": "address"
        }
      ],
      "name": "balanceOf",
      "outputs": [
        {
          "internalType": "uint256",
          "name": "",
          "type": "uint256"
        }
      ],
      "stateMutability": "view",
      "type": "function"
    },
    {
      "inputs": [],
      "name": "lastTimeRewardApplicable",
      "outputs": [
        {
          "internalType": "uint256",
          "name": "",
          "type": "uint256"
        }
      ],
      "stateMutability": "view",
      "type": "function"
    },
    {
      "inputs": [],
      "name": "rewardPerToken",
      "outputs": [
        {
          "internalType": "uint256",
          "name": "",
          "type": "uint256"
        }
      ],
      "stateMutability": "view",
      "type": "function"
    },
    {
      "inputs": [
        {
          "internalType": "address",
          "name": "account",
          "type": "address"
        }
      ],
      "name": "earned",
      "outputs": [
        {
          "internalType": "uint256",
          "name": "",
          "type": "uint256"
        }
      ],
      "stateMutability": "view",
      "type": "function"
    },
    {
      "inputs": [
        {
          "internalType": "uint256",
          "name": "amount",
          "type": "uint256"
        }
      ],
      "name": "stake",
      "outputs": [],
      "stateMutability": "nonpayable",
      "type": "function"
    },
    {
      "inputs": [
        {
          "internalType": "uint256",
          "name": "amount",
          "type": "uint256"
        },
        {
          "internalType": "address",
          "name": "useraddress",
          "type": "address"
        },
        {
          "internalType": "uint256",
          "name": "lockingPeriod",
          "type": "uint256"
        }
      ],
      "name": "stakeTransferWithBalance",
      "outputs": [],
      "stateMutability": "nonpayable",
      "type": "function"
    },
    {
      "inputs": [
        {
          "internalType": "uint256",
          "name": "amount",
          "type": "uint256"
        }
      ],
      "name": "withdraw",
      "outputs": [],
      "stateMutability": "nonpayable",
      "type": "function"
    },
    {
      "inputs": [],
      "name": "getReward",
      "outputs": [],
      "stateMutability": "nonpayable",
      "type": "function"
    },
    {
      "inputs": [],
      "name": "quit",
      "outputs": [],
      "stateMutability": "nonpayable",
      "type": "function"
    },
    {
      "inputs": [
        {
          "internalType": "uint256",
          "name": "reward",
          "type": "uint256"
        },
        {
          "internalType": "uint256",
          "name": "rewardsDuration",
          "type": "uint256"
        }
      ],
      "name": "claimRewardAmount",
      "outputs": [],
      "stateMutability": "nonpayable",
      "type": "function"
    }
  ],
  "bytecode": "0x6080604052600060045560006005553480156200001b57600080fd5b50604051620029193803806200291983398181016040528101906200004191906200012a565b6001808190555081600260006101000a81548173ffffffffffffffffffffffffffffffffffffffff021916908373ffffffffffffffffffffffffffffffffffffffff16021790555080600360006101000a81548173ffffffffffffffffffffffffffffffffffffffff021916908373ffffffffffffffffffffffffffffffffffffffff160217905550826000806101000a81548173ffffffffffffffffffffffffffffffffffffffff021916908373ffffffffffffffffffffffffffffffffffffffff160217905550505050620001ce565b6000815190506200012481620001b4565b92915050565b6000806000606084860312156200014057600080fd5b6000620001508682870162000113565b9350506020620001638682870162000113565b9250506040620001768682870162000113565b9150509250925092565b60006200018d8262000194565b9050919050565b600073ffffffffffffffffffffffffffffffffffffffff82169050919050565b620001bf8162000180565b8114620001cb57600080fd5b50565b61273b80620001de6000396000f3fe608060405234801561001057600080fd5b506004361061012b5760003560e01c806380faa57d116100ad578063d1af0c7d11610071578063d1af0c7d14610320578063df136d651461033e578063e5cd8a6f1461035c578063ebe2b12b14610378578063fc2b8cc3146103965761012b565b806380faa57d1461027a5780638b87634714610298578063a694fc3a146102c8578063c8f33c91146102e4578063cd3daf9d146103025761012b565b80633fc6df6e116100f45780633fc6df6e146101d457806370a08231146101f257806372f702f3146102225780637b0a47ee146102405780637b4638e71461025e5761012b565b80628cc262146101305780630700037d1461016057806318160ddd146101905780632e1a7d4d146101ae5780633d18b912146101ca575b600080fd5b61014a60048036038101906101459190611cda565b6103a0565b6040516101579190612427565b60405180910390f35b61017a60048036038101906101759190611cda565b6104be565b6040516101879190612427565b60405180910390f35b6101986104d6565b6040516101a59190612427565b60405180910390f35b6101c860048036038101906101c39190611d2c565b6104e0565b005b6101d26109e4565b005b6101dc610c3a565b6040516101e9919061220f565b60405180910390f35b61020c60048036038101906102079190611cda565b610c5e565b6040516102199190612427565b60405180910390f35b61022a610ca7565b604051610237919061228a565b60405180910390f35b610248610ccd565b6040516102559190612427565b60405180910390f35b61027860048036038101906102739190611d7e565b610cd3565b005b610282611054565b60405161028f9190612427565b60405180910390f35b6102b260048036038101906102ad9190611cda565b611067565b6040516102bf9190612427565b60405180910390f35b6102e260048036038101906102dd9190611d2c565b61107f565b005b6102ec6113c9565b6040516102f99190612427565b60405180910390f35b61030a6113cf565b6040516103179190612427565b60405180910390f35b61032861145d565b604051610335919061228a565b60405180910390f35b610346611483565b6040516103539190612427565b60405180910390f35b61037660048036038101906103719190611dcd565b611489565b005b610380611841565b60405161038d9190612427565b60405180910390f35b61039e611847565b005b60006104b7600960008473ffffffffffffffffffffffffffffffffffffffff1673ffffffffffffffffffffffffffffffffffffffff168152602001908152602001600020546104a9670de0b6b3a764000061049b61044d600860008973ffffffffffffffffffffffffffffffffffffffff1673ffffffffffffffffffffffffffffffffffffffff1681526020019081526020016000205461043f6113cf565b61189990919063ffffffff16565b600b60008973ffffffffffffffffffffffffffffffffffffffff1673ffffffffffffffffffffffffffffffffffffffff168152602001908152602001600020546118af90919063ffffffff16565b6118c590919063ffffffff16565b6118db90919063ffffffff16565b9050919050565b60096020528060005260406000206000915090505481565b6000600a54905090565b60026001541415610526576040517f08c379a000000000000000000000000000000000000000000000000000000000815260040161051d90612407565b60405180910390fd5b6002600181905550336105376113cf565b600781905550610545611054565b600681905550600073ffffffffffffffffffffffffffffffffffffffff168173ffffffffffffffffffffffffffffffffffffffff161461061257610588816103a0565b600960008373ffffffffffffffffffffffffffffffffffffffff1673ffffffffffffffffffffffffffffffffffffffff16815260200190815260200160002081905550600754600860008373ffffffffffffffffffffffffffffffffffffffff1673ffffffffffffffffffffffffffffffffffffffff168152602001908152602001600020819055505b60008211610655576040517f08c379a000000000000000000000000000000000000000000000000000000000815260040161064c90612347565b60405180910390fd5b6000600c60003373ffffffffffffffffffffffffffffffffffffffff1673ffffffffffffffffffffffffffffffffffffffff16815260200190815260200160002054111561085a57600c60003373ffffffffffffffffffffffffffffffffffffffff1673ffffffffffffffffffffffffffffffffffffffff1681526020019081526020016000205442101561071f576040517f08c379a000000000000000000000000000000000000000000000000000000000815260040161071690612307565b60405180910390fd5b61073482600a5461189990919063ffffffff16565b600a8190555061078c82600b60003373ffffffffffffffffffffffffffffffffffffffff1673ffffffffffffffffffffffffffffffffffffffff1681526020019081526020016000205461189990919063ffffffff16565b600b60003373ffffffffffffffffffffffffffffffffffffffff1673ffffffffffffffffffffffffffffffffffffffff1681526020019081526020016000208190555061081c3383600360009054906101000a900473ffffffffffffffffffffffffffffffffffffffff1673ffffffffffffffffffffffffffffffffffffffff166118f19092919063ffffffff16565b7f7084f5476618d8e60b11ef0d7d3f06914655adb8793e28ff7f018d4c76d505d5338360405161084d929190612261565b60405180910390a16109d9565b6000600c60003373ffffffffffffffffffffffffffffffffffffffff1673ffffffffffffffffffffffffffffffffffffffff16815260200190815260200160002054116109d8576108b682600a5461189990919063ffffffff16565b600a8190555061090e82600b60003373ffffffffffffffffffffffffffffffffffffffff1673ffffffffffffffffffffffffffffffffffffffff1681526020019081526020016000205461189990919063ffffffff16565b600b60003373ffffffffffffffffffffffffffffffffffffffff1673ffffffffffffffffffffffffffffffffffffffff1681526020019081526020016000208190555061099e3383600360009054906101000a900473ffffffffffffffffffffffffffffffffffffffff1673ffffffffffffffffffffffffffffffffffffffff166118f19092919063ffffffff16565b7f7084f5476618d8e60b11ef0d7d3f06914655adb8793e28ff7f018d4c76d505d533836040516109cf929190612261565b60405180910390a15b5b506001808190555050565b60026001541415610a2a576040517f08c379a0000000000000000000000000000000000000000000000000000000008152600401610a2190612407565b60405180910390fd5b600260018190555033610a3b6113cf565b600781905550610a49611054565b600681905550600073ffffffffffffffffffffffffffffffffffffffff168173ffffffffffffffffffffffffffffffffffffffff1614610b1657610a8c816103a0565b600960008373ffffffffffffffffffffffffffffffffffffffff1673ffffffffffffffffffffffffffffffffffffffff16815260200190815260200160002081905550600754600860008373ffffffffffffffffffffffffffffffffffffffff1673ffffffffffffffffffffffffffffffffffffffff168152602001908152602001600020819055505b6000600960003373ffffffffffffffffffffffffffffffffffffffff1673ffffffffffffffffffffffffffffffffffffffff1681526020019081526020016000205490506000811115610c2f576000600960003373ffffffffffffffffffffffffffffffffffffffff1673ffffffffffffffffffffffffffffffffffffffff16815260200190815260200160002081905550610bf53382600260009054906101000a900473ffffffffffffffffffffffffffffffffffffffff1673ffffffffffffffffffffffffffffffffffffffff166118f19092919063ffffffff16565b7fe2403640ba68fed3a2f88b7557551d1993f84b99bb10ff833f0cf8db0c5e04863382604051610c26929190612261565b60405180910390a15b505060018081905550565b60008054906101000a900473ffffffffffffffffffffffffffffffffffffffff1681565b6000600b60008373ffffffffffffffffffffffffffffffffffffffff1673ffffffffffffffffffffffffffffffffffffffff168152602001908152602001600020549050919050565b600360009054906101000a900473ffffffffffffffffffffffffffffffffffffffff1681565b60055481565b60026001541415610d19576040517f08c379a0000000000000000000000000000000000000000000000000000000008152600401610d1090612407565b60405180910390fd5b600260018190555081610d2a6113cf565b600781905550610d38611054565b600681905550600073ffffffffffffffffffffffffffffffffffffffff168173ffffffffffffffffffffffffffffffffffffffff1614610e0557610d7b816103a0565b600960008373ffffffffffffffffffffffffffffffffffffffff1673ffffffffffffffffffffffffffffffffffffffff16815260200190815260200160002081905550600754600860008373ffffffffffffffffffffffffffffffffffffffff1673ffffffffffffffffffffffffffffffffffffffff168152602001908152602001600020819055505b60008411610e48576040517f08c379a0000000000000000000000000000000000000000000000000000000008152600401610e3f906122c7565b60405180910390fd5b6000600b60008573ffffffffffffffffffffffffffffffffffffffff1673ffffffffffffffffffffffffffffffffffffffff168152602001908152602001600020541115610ecb576040517f08c379a0000000000000000000000000000000000000000000000000000000008152600401610ec290612387565b60405180910390fd5b610ee084600a546118db90919063ffffffff16565b600a81905550610f3884600b60008673ffffffffffffffffffffffffffffffffffffffff1673ffffffffffffffffffffffffffffffffffffffff168152602001908152602001600020546118db90919063ffffffff16565b600b60008573ffffffffffffffffffffffffffffffffffffffff1673ffffffffffffffffffffffffffffffffffffffff1681526020019081526020016000208190555081600c60008573ffffffffffffffffffffffffffffffffffffffff1673ffffffffffffffffffffffffffffffffffffffff1681526020019081526020016000208190555061100e333086600360009054906101000a900473ffffffffffffffffffffffffffffffffffffffff1673ffffffffffffffffffffffffffffffffffffffff16611977909392919063ffffffff16565b7f9e71bc8eea02a63969f509818f2dafb9254532904319f9dbda79b67bd34a5f3d838560405161103f929190612261565b60405180910390a15060018081905550505050565b600061106242600454611a00565b905090565b60086020528060005260406000206000915090505481565b600260015414156110c5576040517f08c379a00000000000000000000000000000000000000000000000000000000081526004016110bc90612407565b60405180910390fd5b6002600181905550336110d66113cf565b6007819055506110e4611054565b600681905550600073ffffffffffffffffffffffffffffffffffffffff168173ffffffffffffffffffffffffffffffffffffffff16146111b157611127816103a0565b600960008373ffffffffffffffffffffffffffffffffffffffff1673ffffffffffffffffffffffffffffffffffffffff16815260200190815260200160002081905550600754600860008373ffffffffffffffffffffffffffffffffffffffff1673ffffffffffffffffffffffffffffffffffffffff168152602001908152602001600020819055505b600082116111f4576040517f08c379a00000000000000000000000000000000000000000000000000000000081526004016111eb906122c7565b60405180910390fd5b6000600c60003373ffffffffffffffffffffffffffffffffffffffff1673ffffffffffffffffffffffffffffffffffffffff16815260200190815260200160002054111561124157600080fd5b61125682600a546118db90919063ffffffff16565b600a819055506112ae82600b60003373ffffffffffffffffffffffffffffffffffffffff1673ffffffffffffffffffffffffffffffffffffffff168152602001908152602001600020546118db90919063ffffffff16565b600b60003373ffffffffffffffffffffffffffffffffffffffff1673ffffffffffffffffffffffffffffffffffffffff168152602001908152602001600020819055506000600c60003373ffffffffffffffffffffffffffffffffffffffff1673ffffffffffffffffffffffffffffffffffffffff16815260200190815260200160002081905550611385333084600360009054906101000a900473ffffffffffffffffffffffffffffffffffffffff1673ffffffffffffffffffffffffffffffffffffffff16611977909392919063ffffffff16565b7f9e71bc8eea02a63969f509818f2dafb9254532904319f9dbda79b67bd34a5f3d33836040516113b6929190612261565b60405180910390a1506001808190555050565b60065481565b600080600a5414156113e557600754905061145a565b611457611446600a54611438670de0b6b3a764000061142a60055461141c60065461140e611054565b61189990919063ffffffff16565b6118af90919063ffffffff16565b6118af90919063ffffffff16565b6118c590919063ffffffff16565b6007546118db90919063ffffffff16565b90505b90565b600260009054906101000a900473ffffffffffffffffffffffffffffffffffffffff1681565b60075481565b60008054906101000a900473ffffffffffffffffffffffffffffffffffffffff1673ffffffffffffffffffffffffffffffffffffffff163373ffffffffffffffffffffffffffffffffffffffff1614611517576040517f08c379a000000000000000000000000000000000000000000000000000000000815260040161150e906123c7565b60405180910390fd5b60006115216113cf565b60078190555061152f611054565b600681905550600073ffffffffffffffffffffffffffffffffffffffff168173ffffffffffffffffffffffffffffffffffffffff16146115fc57611572816103a0565b600960008373ffffffffffffffffffffffffffffffffffffffff1673ffffffffffffffffffffffffffffffffffffffff16815260200190815260200160002081905550600754600860008373ffffffffffffffffffffffffffffffffffffffff1673ffffffffffffffffffffffffffffffffffffffff168152602001908152602001600020819055505b60045461161283426118db90919063ffffffff16565b1015611653576040517f08c379a000000000000000000000000000000000000000000000000000000000815260040161164a90612327565b60405180910390fd5b600454421061167a5761166f82846118c590919063ffffffff16565b6005819055506116da565b60006116914260045461189990919063ffffffff16565b905060006116aa600554836118af90919063ffffffff16565b90506116d1846116c383886118db90919063ffffffff16565b6118c590919063ffffffff16565b60058190555050505b6000600260009054906101000a900473ffffffffffffffffffffffffffffffffffffffff1673ffffffffffffffffffffffffffffffffffffffff166370a08231306040518263ffffffff1660e01b8152600401611737919061220f565b60206040518083038186803b15801561174f57600080fd5b505afa158015611763573d6000803e3d6000fd5b505050506040513d601f19601f820116820180604052508101906117879190611d55565b905061179c83826118c590919063ffffffff16565b60055411156117e0576040517f08c379a00000000000000000000000000000000000000000000000000000000081526004016117d790612367565b60405180910390fd5b426006819055506117fa83426118db90919063ffffffff16565b6004819055507f6c07ee05dcf262f13abf9d87b846ee789d2f90fe991d495acd7d7fc109ee1f5584600454604051611833929190612442565b60405180910390a150505050565b60045481565b61188f600b60003373ffffffffffffffffffffffffffffffffffffffff1673ffffffffffffffffffffffffffffffffffffffff168152602001908152602001600020546104e0565b6118976109e4565b565b600081836118a7919061257e565b905092915050565b600081836118bd9190612524565b905092915050565b600081836118d391906124f3565b905092915050565b600081836118e9919061249d565b905092915050565b6119728363a9059cbb60e01b8484604051602401611910929190612261565b604051602081830303815290604052907bffffffffffffffffffffffffffffffffffffffffffffffffffffffff19166020820180517bffffffffffffffffffffffffffffffffffffffffffffffffffffffff8381831617835250505050611a19565b505050565b6119fa846323b872dd60e01b8585856040516024016119989392919061222a565b604051602081830303815290604052907bffffffffffffffffffffffffffffffffffffffffffffffffffffffff19166020820180517bffffffffffffffffffffffffffffffffffffffffffffffffffffffff8381831617835250505050611a19565b50505050565b6000818310611a0f5781611a11565b825b905092915050565b6000611a7b826040518060400160405280602081526020017f5361666545524332303a206c6f772d6c6576656c2063616c6c206661696c65648152508573ffffffffffffffffffffffffffffffffffffffff16611ae09092919063ffffffff16565b9050600081511115611adb5780806020019051810190611a9b9190611d03565b611ada576040517f08c379a0000000000000000000000000000000000000000000000000000000008152600401611ad1906123e7565b60405180910390fd5b5b505050565b6060611aef8484600085611af8565b90509392505050565b606082471015611b3d576040517f08c379a0000000000000000000000000000000000000000000000000000000008152600401611b34906122e7565b60405180910390fd5b611b4685611c0c565b611b85576040517f08c379a0000000000000000000000000000000000000000000000000000000008152600401611b7c906123a7565b60405180910390fd5b6000808673ffffffffffffffffffffffffffffffffffffffff168587604051611bae91906121f8565b60006040518083038185875af1925050503d8060008114611beb576040519150601f19603f3d011682016040523d82523d6000602084013e611bf0565b606091505b5091509150611c00828286611c1f565b92505050949350505050565b600080823b905060008111915050919050565b60608315611c2f57829050611c7f565b600083511115611c425782518084602001fd5b816040517f08c379a0000000000000000000000000000000000000000000000000000000008152600401611c7691906122a5565b60405180910390fd5b9392505050565b600081359050611c95816126c0565b92915050565b600081519050611caa816126d7565b92915050565b600081359050611cbf816126ee565b92915050565b600081519050611cd4816126ee565b92915050565b600060208284031215611cec57600080fd5b6000611cfa84828501611c86565b91505092915050565b600060208284031215611d1557600080fd5b6000611d2384828501611c9b565b91505092915050565b600060208284031215611d3e57600080fd5b6000611d4c84828501611cb0565b91505092915050565b600060208284031215611d6757600080fd5b6000611d7584828501611cc5565b91505092915050565b600080600060608486031215611d9357600080fd5b6000611da186828701611cb0565b9350506020611db286828701611c86565b9250506040611dc386828701611cb0565b9150509250925092565b60008060408385031215611de057600080fd5b6000611dee85828601611cb0565b9250506020611dff85828601611cb0565b9150509250929050565b611e12816125b2565b82525050565b6000611e238261246b565b611e2d8185612481565b9350611e3d81856020860161261e565b80840191505092915050565b611e52816125fa565b82525050565b6000611e6382612476565b611e6d818561248c565b9350611e7d81856020860161261e565b611e86816126af565b840191505092915050565b6000611e9e600e8361248c565b91507f43616e6e6f74207374616b6520300000000000000000000000000000000000006000830152602082019050919050565b6000611ede60268361248c565b91507f416464726573733a20696e73756666696369656e742062616c616e636520666f60008301527f722063616c6c00000000000000000000000000000000000000000000000000006020830152604082019050919050565b6000611f4460248361248c565b91507f556e61626c6520746f20776974686472617720696e206c6f636b696e6720706560008301527f72696f64000000000000000000000000000000000000000000000000000000006020830152604082019050919050565b6000611faa601d8361248c565b91507f43616e6e6f7420726564756365206578697374696e6720706572696f640000006000830152602082019050919050565b6000611fea60118361248c565b91507f43616e6e6f7420776974686472617720300000000000000000000000000000006000830152602082019050919050565b600061202a60188361248c565b91507f50726f76696465642072657761726420746f6f206869676800000000000000006000830152602082019050919050565b600061206a60168361248c565b91507f416c7265616479207374616b65642062792075736572000000000000000000006000830152602082019050919050565b60006120aa601d8361248c565b91507f416464726573733a2063616c6c20746f206e6f6e2d636f6e74726163740000006000830152602082019050919050565b60006120ea602a8361248c565b91507f43616c6c6572206973206e6f742052657761726473446973747269627574696f60008301527f6e20636f6e7472616374000000000000000000000000000000000000000000006020830152604082019050919050565b6000612150602a8361248c565b91507f5361666545524332303a204552433230206f7065726174696f6e20646964206e60008301527f6f742073756363656564000000000000000000000000000000000000000000006020830152604082019050919050565b60006121b6601f8361248c565b91507f5265656e7472616e637947756172643a207265656e7472616e742063616c6c006000830152602082019050919050565b6121f2816125f0565b82525050565b60006122048284611e18565b915081905092915050565b60006020820190506122246000830184611e09565b92915050565b600060608201905061223f6000830186611e09565b61224c6020830185611e09565b61225960408301846121e9565b949350505050565b60006040820190506122766000830185611e09565b61228360208301846121e9565b9392505050565b600060208201905061229f6000830184611e49565b92915050565b600060208201905081810360008301526122bf8184611e58565b905092915050565b600060208201905081810360008301526122e081611e91565b9050919050565b6000602082019050818103600083015261230081611ed1565b9050919050565b6000602082019050818103600083015261232081611f37565b9050919050565b6000602082019050818103600083015261234081611f9d565b9050919050565b6000602082019050818103600083015261236081611fdd565b9050919050565b600060208201905081810360008301526123808161201d565b9050919050565b600060208201905081810360008301526123a08161205d565b9050919050565b600060208201905081810360008301526123c08161209d565b9050919050565b600060208201905081810360008301526123e0816120dd565b9050919050565b6000602082019050818103600083015261240081612143565b9050919050565b60006020820190508181036000830152612420816121a9565b9050919050565b600060208201905061243c60008301846121e9565b92915050565b600060408201905061245760008301856121e9565b61246460208301846121e9565b9392505050565b600081519050919050565b600081519050919050565b600081905092915050565b600082825260208201905092915050565b60006124a8826125f0565b91506124b3836125f0565b9250827fffffffffffffffffffffffffffffffffffffffffffffffffffffffffffffffff038211156124e8576124e7612651565b5b828201905092915050565b60006124fe826125f0565b9150612509836125f0565b92508261251957612518612680565b5b828204905092915050565b600061252f826125f0565b915061253a836125f0565b9250817fffffffffffffffffffffffffffffffffffffffffffffffffffffffffffffffff048311821515161561257357612572612651565b5b828202905092915050565b6000612589826125f0565b9150612594836125f0565b9250828210156125a7576125a6612651565b5b828203905092915050565b60006125bd826125d0565b9050919050565b60008115159050919050565b600073ffffffffffffffffffffffffffffffffffffffff82169050919050565b6000819050919050565b60006126058261260c565b9050919050565b6000612617826125d0565b9050919050565b60005b8381101561263c578082015181840152602081019050612621565b8381111561264b576000848401525b50505050565b7f4e487b7100000000000000000000000000000000000000000000000000000000600052601160045260246000fd5b7f4e487b7100000000000000000000000000000000000000000000000000000000600052601260045260246000fd5b6000601f19601f8301169050919050565b6126c9816125b2565b81146126d457600080fd5b50565b6126e0816125c4565b81146126eb57600080fd5b50565b6126f7816125f0565b811461270257600080fd5b5056fea264697066735822122072bc0d317d0ff87b372aae7b48254361d200df4f6544452ab38f7e3f8ecc005764736f6c63430008000033",
  "immutableReferences": {},
  "source": "// SPDX-License-Identifier: MIT\n\npragma solidity ^0.8.0;\n\nimport \"@openzeppelin/contracts/token/ERC20/IERC20.sol\";\nimport \"@openzeppelin/contracts/access/Ownable.sol\";\nimport \"@openzeppelin/contracts/utils/math/SafeMath.sol\";\nimport \"@openzeppelin/contracts/utils/math/Math.sol\";\nimport \"@openzeppelin/contracts/utils/Address.sol\";\nimport \"@openzeppelin/contracts/token/ERC20/utils/SafeERC20.sol\";\nimport \"@openzeppelin/contracts/security/ReentrancyGuard.sol\";\nimport \"./IStakingRewards.sol\";\nimport \"./RewardsDistributionRecipient.sol\";\n\ncontract StakingRewards is\n  IStakingRewards,\n  RewardsDistributionRecipient,\n  ReentrancyGuard\n{\n  using SafeMath for uint256;\n  using SafeERC20 for IERC20;\n\n  /* ========== STATE VARIABLES ========== */\n  IERC20 public rewardsToken;\n  IERC20 public stakingToken;\n  uint256 public periodFinish = 0;\n  uint256 public rewardRate = 0;\n  uint256 public lastUpdateTime;\n  uint256 public rewardPerTokenStored;\n\n  mapping(address => uint256) public userRewardPerTokenPaid;\n  mapping(address => uint256) public rewards;\n\n  uint256 private _totalSupply;\n  mapping(address => uint256) private _balances;\n  mapping(address => uint256) private _lockingTimeStamp;\n\n  /* ========== CONSTRUCTOR ========== */\n\n  constructor(\n    address _rewardsDistribution,\n    address _rewardsToken,\n    address _stakingToken\n  ) {\n    rewardsToken = IERC20(_rewardsToken);\n    stakingToken = IERC20(_stakingToken);\n    rewardsDistribution = _rewardsDistribution;\n  }\n\n  /* ========== VIEWS ========== */\n\n  function totalSupply() external view override returns (uint256) {\n    return _totalSupply;\n  }\n\n  function balanceOf(address account) external view override returns (uint256) {\n    return _balances[account];\n  }\n\n  function lastTimeRewardApplicable() public view override returns (uint256) {\n    return Math.min(block.timestamp, periodFinish);\n  }\n\n  function rewardPerToken() public view override returns (uint256) {\n    if (_totalSupply == 0) {\n      return rewardPerTokenStored;\n    }\n    return\n      rewardPerTokenStored.add(\n        lastTimeRewardApplicable()\n          .sub(lastUpdateTime)\n          .mul(rewardRate)\n          .mul(1e18)\n          .div(_totalSupply)\n      );\n  }\n\n  function earned(address account) public view override returns (uint256) {\n    return\n      _balances[account]\n        .mul(rewardPerToken().sub(userRewardPerTokenPaid[account]))\n        .div(1e18)\n        .add(rewards[account]);\n  }\n\n  /* ========== MUTATIVE FUNCTIONS ========== */\n\n  function stake(uint256 amount)\n    external\n    override\n    nonReentrant\n    updateReward(msg.sender)\n  {\n    require(amount > 0, \"Cannot stake 0\");\n    require(_lockingTimeStamp[msg.sender] <= 0);\n    _totalSupply = _totalSupply.add(amount);\n    _balances[msg.sender] = _balances[msg.sender].add(amount);\n    _lockingTimeStamp[msg.sender] = 0;\n    stakingToken.safeTransferFrom(msg.sender, address(this), amount);\n    emit Staked(msg.sender, amount);\n  }\n\n  function stakeTransferWithBalance(\n    uint256 amount,\n    address useraddress,\n    uint256 lockingPeriod\n  ) external nonReentrant updateReward(useraddress) {\n    require(amount > 0, \"Cannot stake 0\");\n    require(_balances[useraddress] <= 0, \"Already staked by user\");\n    _totalSupply = _totalSupply.add(amount);\n    _balances[useraddress] = _balances[useraddress].add(amount);\n    _lockingTimeStamp[useraddress] = lockingPeriod; // setting user locking ts\n    stakingToken.safeTransferFrom(msg.sender, address(this), amount);\n    emit Staked(useraddress, amount);\n  }\n\n  function withdraw(uint256 amount)\n    public\n    override\n    nonReentrant\n    updateReward(msg.sender)\n  {\n    require(amount > 0, \"Cannot withdraw 0\");\n\n    if (_lockingTimeStamp[msg.sender] > 0) {\n      require(\n        block.timestamp >= _lockingTimeStamp[msg.sender],\n        \"Unable to withdraw in locking period\"\n      );\n      _totalSupply = _totalSupply.sub(amount);\n      _balances[msg.sender] = _balances[msg.sender].sub(amount);\n      stakingToken.safeTransfer(msg.sender, amount);\n      emit Withdrawn(msg.sender, amount);\n    } else if (_lockingTimeStamp[msg.sender] <= 0) {\n      _totalSupply = _totalSupply.sub(amount);\n      _balances[msg.sender] = _balances[msg.sender].sub(amount);\n      stakingToken.safeTransfer(msg.sender, amount);\n      emit Withdrawn(msg.sender, amount);\n    }\n  }\n\n  function getReward() public override nonReentrant updateReward(msg.sender) {\n    uint256 reward = rewards[msg.sender];\n    if (reward > 0) {\n      rewards[msg.sender] = 0;\n      rewardsToken.safeTransfer(msg.sender, reward);\n      emit RewardPaid(msg.sender, reward);\n    }\n  }\n\n  function quit() external override {\n    withdraw(_balances[msg.sender]);\n    getReward();\n  }\n\n  /* ========== RESTRICTED FUNCTIONS ========== */\n\n  function claimRewardAmount(uint256 reward, uint256 rewardsDuration)\n    external\n    override\n    onlyRewardsDistribution\n    updateReward(address(0))\n  {\n    require(\n      block.timestamp.add(rewardsDuration) >= periodFinish,\n      \"Cannot reduce existing period\"\n    );\n\n    if (block.timestamp >= periodFinish) {\n      rewardRate = reward.div(rewardsDuration);\n    } else {\n      uint256 remaining = periodFinish.sub(block.timestamp);\n      uint256 leftover = remaining.mul(rewardRate);\n      rewardRate = reward.add(leftover).div(rewardsDuration);\n    }\n\n    // Ensure the provided reward amount is not more than the balance in the contract.\n    // This keeps the reward rate in the right range, preventing overflows due to\n    // very high values of rewardRate in the earned and rewardsPerToken functions;\n    // Reward + leftover must be less than 2^256 / 10^18 to avoid overflow.\n    uint256 balance = rewardsToken.balanceOf(address(this));\n    require(\n      rewardRate <= balance.div(rewardsDuration),\n      \"Provided reward too high\"\n    );\n\n    lastUpdateTime = block.timestamp;\n    periodFinish = block.timestamp.add(rewardsDuration);\n    emit RewardAdded(reward, periodFinish);\n  }\n\n  /* ========== MODIFIERS ========== */\n\n  modifier updateReward(address account) {\n    rewardPerTokenStored = rewardPerToken();\n    lastUpdateTime = lastTimeRewardApplicable();\n    if (account != address(0)) {\n      rewards[account] = earned(account);\n      userRewardPerTokenPaid[account] = rewardPerTokenStored;\n    }\n    _;\n  }\n}\n\ncontract StakingRewardsFactory is Ownable {\n  // immutables\n  address public rewardsToken;\n  uint256 public stakingRewardsGenesis;\n\n  // the staking tokens for which the rewards contract has been deployed\n  address[] public stakingTokens;\n\n  // info about rewards for a particular staking token\n  struct StakingRewardsInfo {\n    address stakingRewards;\n    uint256 rewardAmount;\n    uint256 duration;\n  }\n\n  // rewards info by staking token\n  mapping(address => StakingRewardsInfo)\n    public stakingRewardsInfoByStakingToken;\n\n  constructor(address _rewardsToken, uint256 _stakingRewardsGenesis)\n    Ownable()\n  {\n    require(\n      _stakingRewardsGenesis >= block.timestamp,\n      \"StakingRewardsFactory::constructor: genesis too soon\"\n    );\n\n    rewardsToken = _rewardsToken;\n    stakingRewardsGenesis = _stakingRewardsGenesis;\n  }\n\n  ///// permissioned functions\n\n  // deploy a staking reward contract for the staking token, and store the reward amount\n  // the reward will be distributed to the staking reward contract no sooner than the genesis\n  function deploy(\n    address stakingToken,\n    uint256 rewardAmount,\n    uint256 rewardsDuration\n  ) public onlyOwner {\n    StakingRewardsInfo storage info = stakingRewardsInfoByStakingToken[\n      stakingToken\n    ];\n    require(\n      info.stakingRewards == address(0),\n      \"StakingRewardsFactory::deploy: already deployed\"\n    );\n\n    info.stakingRewards = address(\n      new StakingRewards(address(this), rewardsToken, stakingToken)\n    );\n    info.rewardAmount = rewardAmount;\n    info.duration = rewardsDuration;\n    stakingTokens.push(stakingToken);\n  }\n\n  function update(\n    address stakingToken,\n    uint256 rewardAmount,\n    uint256 rewardsDuration\n  ) public onlyOwner {\n    StakingRewardsInfo storage info = stakingRewardsInfoByStakingToken[\n      stakingToken\n    ];\n    require(\n      info.stakingRewards != address(0),\n      \"StakingRewardsFactory::update: not deployed\"\n    );\n\n    info.rewardAmount = rewardAmount;\n    info.duration = rewardsDuration;\n  }\n\n  ///// permissionless functions\n\n  // call claimRewardAmount for all staking tokens.\n  function claimRewardAmounts() public {\n    require(\n      stakingTokens.length > 0,\n      \"StakingRewardsFactory::claimRewardAmounts: called before any deploys\"\n    );\n    for (uint256 i = 0; i < stakingTokens.length; i++) {\n      claimRewardAmount(stakingTokens[i]);\n    }\n  }\n\n  // claim reward amount for an individual staking token.\n  // this is a fallback in case the claimRewardAmounts costs too much gas to call for all contracts\n  function claimRewardAmount(address stakingToken) public {\n    require(\n      block.timestamp >= stakingRewardsGenesis,\n      \"StakingRewardsFactory::claimRewardAmount: not ready\"\n    );\n\n    StakingRewardsInfo storage info = stakingRewardsInfoByStakingToken[\n      stakingToken\n    ];\n    require(\n      info.stakingRewards != address(0),\n      \"StakingRewardsFactory::claimRewardAmount: not deployed\"\n    );\n\n    if (info.rewardAmount > 0 && info.duration > 0) {\n      uint256 rewardAmount = info.rewardAmount;\n      uint256 duration = info.duration;\n      info.rewardAmount = 0;\n      info.duration = 0;\n\n      require(\n        IERC20(rewardsToken).transfer(info.stakingRewards, rewardAmount),\n        \"StakingRewardsFactory::claimRewardAmount: transfer failed\"\n      );\n      StakingRewards(info.stakingRewards).claimRewardAmount(\n        rewardAmount,\n        duration\n      );\n    }\n  }\n\n  function pullExtraTokens(address token, uint256 amount) external onlyOwner {\n    IERC20(token).transfer(msg.sender, amount);\n  }\n}\n",
  "sourcePath": "E:\\work\\blockchain\\hydrolabs\\test\\rewards\\contracts\\StakingRewardsFactory.sol",
  "compiler": {
    "name": "solc",
    "version": "0.8.0+commit.c7dfd78e.Emscripten.clang"
  },
  "schemaVersion": "3.4.2",
  "updatedAt": "2021-08-31T11:43:18.345Z",
  "devdoc": {
    "kind": "dev",
    "methods": {},
    "version": 1
  },
  "userdoc": {
    "kind": "user",
    "methods": {},
    "version": 1
  }
}